{
  "_format": "hh-sol-artifact-1",
  "contractName": "RealMonkeyCollection",
  "sourceName": "contracts/RealMonkeyCollection.sol",
  "abi": [
    {
      "inputs": [],
      "stateMutability": "nonpayable",
      "type": "constructor"
    },
    {
      "anonymous": false,
      "inputs": [
        {
          "indexed": true,
          "internalType": "address",
          "name": "owner",
          "type": "address"
        },
        {
          "indexed": true,
          "internalType": "address",
          "name": "approved",
          "type": "address"
        },
        {
          "indexed": true,
          "internalType": "uint256",
          "name": "tokenId",
          "type": "uint256"
        }
      ],
      "name": "Approval",
      "type": "event"
    },
    {
      "anonymous": false,
      "inputs": [
        {
          "indexed": true,
          "internalType": "address",
          "name": "owner",
          "type": "address"
        },
        {
          "indexed": true,
          "internalType": "address",
          "name": "operator",
          "type": "address"
        },
        {
          "indexed": false,
          "internalType": "bool",
          "name": "approved",
          "type": "bool"
        }
      ],
      "name": "ApprovalForAll",
      "type": "event"
    },
    {
      "anonymous": false,
      "inputs": [
        {
          "indexed": true,
          "internalType": "address",
          "name": "to",
          "type": "address"
        },
        {
          "indexed": false,
          "internalType": "uint256",
          "name": "tokenId",
          "type": "uint256"
        },
        {
          "indexed": false,
          "internalType": "string",
          "name": "tokenURI",
          "type": "string"
        }
      ],
      "name": "NftMinted",
      "type": "event"
    },
    {
      "anonymous": false,
      "inputs": [
        {
          "indexed": true,
          "internalType": "address",
          "name": "previousOwner",
          "type": "address"
        },
        {
          "indexed": true,
          "internalType": "address",
          "name": "newOwner",
          "type": "address"
        }
      ],
      "name": "OwnershipTransferred",
      "type": "event"
    },
    {
      "anonymous": false,
      "inputs": [
        {
          "indexed": true,
          "internalType": "address",
          "name": "from",
          "type": "address"
        },
        {
          "indexed": true,
          "internalType": "address",
          "name": "to",
          "type": "address"
        },
        {
          "indexed": true,
          "internalType": "uint256",
          "name": "tokenId",
          "type": "uint256"
        }
      ],
      "name": "Transfer",
      "type": "event"
    },
    {
      "inputs": [
        {
          "internalType": "address",
          "name": "to",
          "type": "address"
        },
        {
          "internalType": "uint256",
          "name": "tokenId",
          "type": "uint256"
        }
      ],
      "name": "approve",
      "outputs": [],
      "stateMutability": "nonpayable",
      "type": "function"
    },
    {
      "inputs": [
        {
          "internalType": "address",
          "name": "owner",
          "type": "address"
        }
      ],
      "name": "balanceOf",
      "outputs": [
        {
          "internalType": "uint256",
          "name": "",
          "type": "uint256"
        }
      ],
      "stateMutability": "view",
      "type": "function"
    },
    {
      "inputs": [
        {
          "internalType": "uint256",
          "name": "tokenId",
          "type": "uint256"
        }
      ],
      "name": "getApproved",
      "outputs": [
        {
          "internalType": "address",
          "name": "",
          "type": "address"
        }
      ],
      "stateMutability": "view",
      "type": "function"
    },
    {
      "inputs": [
        {
          "internalType": "address",
          "name": "owner",
          "type": "address"
        },
        {
          "internalType": "address",
          "name": "operator",
          "type": "address"
        }
      ],
      "name": "isApprovedForAll",
      "outputs": [
        {
          "internalType": "bool",
          "name": "",
          "type": "bool"
        }
      ],
      "stateMutability": "view",
      "type": "function"
    },
    {
      "inputs": [
        {
          "internalType": "address",
          "name": "to",
          "type": "address"
        },
        {
          "internalType": "uint256",
          "name": "tokenId",
          "type": "uint256"
        },
        {
          "internalType": "string",
          "name": "tokenURI",
          "type": "string"
        }
      ],
      "name": "mintNft",
      "outputs": [
        {
          "internalType": "uint256",
          "name": "",
          "type": "uint256"
        }
      ],
      "stateMutability": "nonpayable",
      "type": "function"
    },
    {
      "inputs": [],
      "name": "name",
      "outputs": [
        {
          "internalType": "string",
          "name": "",
          "type": "string"
        }
      ],
      "stateMutability": "view",
      "type": "function"
    },
    {
      "inputs": [],
      "name": "owner",
      "outputs": [
        {
          "internalType": "address",
          "name": "",
          "type": "address"
        }
      ],
      "stateMutability": "view",
      "type": "function"
    },
    {
      "inputs": [
        {
          "internalType": "uint256",
          "name": "tokenId",
          "type": "uint256"
        }
      ],
      "name": "ownerOf",
      "outputs": [
        {
          "internalType": "address",
          "name": "",
          "type": "address"
        }
      ],
      "stateMutability": "view",
      "type": "function"
    },
    {
      "inputs": [],
      "name": "renounceOwnership",
      "outputs": [],
      "stateMutability": "nonpayable",
      "type": "function"
    },
    {
      "inputs": [
        {
          "internalType": "address",
          "name": "from",
          "type": "address"
        },
        {
          "internalType": "address",
          "name": "to",
          "type": "address"
        },
        {
          "internalType": "uint256",
          "name": "tokenId",
          "type": "uint256"
        }
      ],
      "name": "safeTransferFrom",
      "outputs": [],
      "stateMutability": "nonpayable",
      "type": "function"
    },
    {
      "inputs": [
        {
          "internalType": "address",
          "name": "from",
          "type": "address"
        },
        {
          "internalType": "address",
          "name": "to",
          "type": "address"
        },
        {
          "internalType": "uint256",
          "name": "tokenId",
          "type": "uint256"
        },
        {
          "internalType": "bytes",
          "name": "_data",
          "type": "bytes"
        }
      ],
      "name": "safeTransferFrom",
      "outputs": [],
      "stateMutability": "nonpayable",
      "type": "function"
    },
    {
      "inputs": [
        {
          "internalType": "address",
          "name": "operator",
          "type": "address"
        },
        {
          "internalType": "bool",
          "name": "approved",
          "type": "bool"
        }
      ],
      "name": "setApprovalForAll",
      "outputs": [],
      "stateMutability": "nonpayable",
      "type": "function"
    },
    {
      "inputs": [
        {
          "internalType": "bytes4",
          "name": "interfaceId",
          "type": "bytes4"
        }
      ],
      "name": "supportsInterface",
      "outputs": [
        {
          "internalType": "bool",
          "name": "",
          "type": "bool"
        }
      ],
      "stateMutability": "view",
      "type": "function"
    },
    {
      "inputs": [],
      "name": "symbol",
      "outputs": [
        {
          "internalType": "string",
          "name": "",
          "type": "string"
        }
      ],
      "stateMutability": "view",
      "type": "function"
    },
    {
      "inputs": [
        {
          "internalType": "uint256",
          "name": "tokenId",
          "type": "uint256"
        }
      ],
      "name": "tokenURI",
      "outputs": [
        {
          "internalType": "string",
          "name": "",
          "type": "string"
        }
      ],
      "stateMutability": "view",
      "type": "function"
    },
    {
      "inputs": [
        {
          "internalType": "address",
          "name": "from",
          "type": "address"
        },
        {
          "internalType": "address",
          "name": "to",
          "type": "address"
        },
        {
          "internalType": "uint256",
          "name": "tokenId",
          "type": "uint256"
        }
      ],
      "name": "transferFrom",
      "outputs": [],
      "stateMutability": "nonpayable",
      "type": "function"
    },
    {
      "inputs": [
        {
          "internalType": "address",
          "name": "newOwner",
          "type": "address"
        }
      ],
      "name": "transferOwnership",
      "outputs": [],
      "stateMutability": "nonpayable",
      "type": "function"
    }
  ],
  "bytecode": "0x60806040523480156200001157600080fd5b506040518060400160405280601681526020017f5265616c204d6f6e6b657920436f6c6c656374696f6e000000000000000000008152506040518060400160405280600381526020017f524d430000000000000000000000000000000000000000000000000000000000815250816000908051906020019062000096929190620001a6565b508060019080519060200190620000af929190620001a6565b505050620000d2620000c6620000d860201b60201c565b620000e060201b60201c565b620002bb565b600033905090565b6000600760009054906101000a900473ffffffffffffffffffffffffffffffffffffffff16905081600760006101000a81548173ffffffffffffffffffffffffffffffffffffffff021916908373ffffffffffffffffffffffffffffffffffffffff1602179055508173ffffffffffffffffffffffffffffffffffffffff168173ffffffffffffffffffffffffffffffffffffffff167f8be0079c531659141344cd1fd0a4f28419497f9722a3daafe3b4186f6b6457e060405160405180910390a35050565b828054620001b49062000256565b90600052602060002090601f016020900481019282620001d8576000855562000224565b82601f10620001f357805160ff191683800117855562000224565b8280016001018555821562000224579182015b828111156200022357825182559160200191906001019062000206565b5b50905062000233919062000237565b5090565b5b808211156200025257600081600090555060010162000238565b5090565b600060028204905060018216806200026f57607f821691505b602082108114156200028657620002856200028c565b5b50919050565b7f4e487b7100000000000000000000000000000000000000000000000000000000600052602260045260246000fd5b6130b980620002cb6000396000f3fe608060405234801561001057600080fd5b506004361061010b5760003560e01c8063715018a6116100a2578063a22cb46511610071578063a22cb465146102b8578063b88d4fde146102d4578063c87b56dd146102f0578063e985e9c514610320578063f2fde38b146103505761010b565b8063715018a6146102425780638da5cb5b1461024c57806395d89b411461026a5780639a6a009b146102885761010b565b806323b872dd116100de57806323b872dd146101aa57806342842e0e146101c65780636352211e146101e257806370a08231146102125761010b565b806301ffc9a71461011057806306fdde0314610140578063081812fc1461015e578063095ea7b31461018e575b600080fd5b61012a60048036038101906101259190612038565b61036c565b6040516101379190612484565b60405180910390f35b61014861044e565b604051610155919061249f565b60405180910390f35b6101786004803603810190610173919061208a565b6104e0565b604051610185919061241d565b60405180910390f35b6101a860048036038101906101a39190611f95565b610565565b005b6101c460048036038101906101bf9190611e8f565b61067d565b005b6101e060048036038101906101db9190611e8f565b6106dd565b005b6101fc60048036038101906101f7919061208a565b6106fd565b604051610209919061241d565b60405180910390f35b61022c60048036038101906102279190611e2a565b6107af565b6040516102399190612701565b60405180910390f35b61024a610867565b005b6102546108ef565b604051610261919061241d565b60405180910390f35b610272610919565b60405161027f919061249f565b60405180910390f35b6102a2600480360381019061029d9190611fd1565b6109ab565b6040516102af9190612701565b60405180910390f35b6102d260048036038101906102cd9190611f59565b610a97565b005b6102ee60048036038101906102e99190611ede565b610aad565b005b61030a6004803603810190610305919061208a565b610b0f565b604051610317919061249f565b60405180910390f35b61033a60048036038101906103359190611e53565b610c61565b6040516103479190612484565b60405180910390f35b61036a60048036038101906103659190611e2a565b610cf5565b005b60007f80ac58cd000000000000000000000000000000000000000000000000000000007bffffffffffffffffffffffffffffffffffffffffffffffffffffffff1916827bffffffffffffffffffffffffffffffffffffffffffffffffffffffff1916148061043757507f5b5e139f000000000000000000000000000000000000000000000000000000007bffffffffffffffffffffffffffffffffffffffffffffffffffffffff1916827bffffffffffffffffffffffffffffffffffffffffffffffffffffffff1916145b80610447575061044682610ded565b5b9050919050565b60606000805461045d90612987565b80601f016020809104026020016040519081016040528092919081815260200182805461048990612987565b80156104d65780601f106104ab576101008083540402835291602001916104d6565b820191906000526020600020905b8154815290600101906020018083116104b957829003601f168201915b5050505050905090565b60006104eb82610e57565b61052a576040517f08c379a000000000000000000000000000000000000000000000000000000000815260040161052190612661565b60405180910390fd5b6004600083815260200190815260200160002060009054906101000a900473ffffffffffffffffffffffffffffffffffffffff169050919050565b6000610570826106fd565b90508073ffffffffffffffffffffffffffffffffffffffff168373ffffffffffffffffffffffffffffffffffffffff1614156105e1576040517f08c379a00000000000000000000000000000000000000000000000000000000081526004016105d8906126c1565b60405180910390fd5b8073ffffffffffffffffffffffffffffffffffffffff16610600610ec3565b73ffffffffffffffffffffffffffffffffffffffff16148061062f575061062e81610629610ec3565b610c61565b5b61066e576040517f08c379a0000000000000000000000000000000000000000000000000000000008152600401610665906125a1565b60405180910390fd5b6106788383610ecb565b505050565b61068e610688610ec3565b82610f84565b6106cd576040517f08c379a00000000000000000000000000000000000000000000000000000000081526004016106c4906126e1565b60405180910390fd5b6106d8838383611062565b505050565b6106f883838360405180602001604052806000815250610aad565b505050565b6000806002600084815260200190815260200160002060009054906101000a900473ffffffffffffffffffffffffffffffffffffffff169050600073ffffffffffffffffffffffffffffffffffffffff168173ffffffffffffffffffffffffffffffffffffffff1614156107a6576040517f08c379a000000000000000000000000000000000000000000000000000000000815260040161079d906125e1565b60405180910390fd5b80915050919050565b60008073ffffffffffffffffffffffffffffffffffffffff168273ffffffffffffffffffffffffffffffffffffffff161415610820576040517f08c379a0000000000000000000000000000000000000000000000000000000008152600401610817906125c1565b60405180910390fd5b600360008373ffffffffffffffffffffffffffffffffffffffff1673ffffffffffffffffffffffffffffffffffffffff168152602001908152602001600020549050919050565b61086f610ec3565b73ffffffffffffffffffffffffffffffffffffffff1661088d6108ef565b73ffffffffffffffffffffffffffffffffffffffff16146108e3576040517f08c379a00000000000000000000000000000000000000000000000000000000081526004016108da90612681565b60405180910390fd5b6108ed60006112c9565b565b6000600760009054906101000a900473ffffffffffffffffffffffffffffffffffffffff16905090565b60606001805461092890612987565b80601f016020809104026020016040519081016040528092919081815260200182805461095490612987565b80156109a15780601f10610976576101008083540402835291602001916109a1565b820191906000526020600020905b81548152906001019060200180831161098457829003601f168201915b5050505050905090565b60006109b5610ec3565b73ffffffffffffffffffffffffffffffffffffffff166109d36108ef565b73ffffffffffffffffffffffffffffffffffffffff1614610a29576040517f08c379a0000000000000000000000000000000000000000000000000000000008152600401610a2090612681565b60405180910390fd5b610a33848461138f565b610a3d83836113ad565b8373ffffffffffffffffffffffffffffffffffffffff167f8e503b21c99b65aca8c7496e1574773871f0a73bf9262e58fb99528b46fd776a8484604051610a8592919061271c565b60405180910390a28290509392505050565b610aa9610aa2610ec3565b8383611421565b5050565b610abe610ab8610ec3565b83610f84565b610afd576040517f08c379a0000000000000000000000000000000000000000000000000000000008152600401610af4906126e1565b60405180910390fd5b610b098484848461158e565b50505050565b6060610b1a82610e57565b610b59576040517f08c379a0000000000000000000000000000000000000000000000000000000008152600401610b5090612641565b60405180910390fd5b6000600660008481526020019081526020016000208054610b7990612987565b80601f0160208091040260200160405190810160405280929190818152602001828054610ba590612987565b8015610bf25780601f10610bc757610100808354040283529160200191610bf2565b820191906000526020600020905b815481529060010190602001808311610bd557829003601f168201915b505050505090506000610c036115ea565b9050600081511415610c19578192505050610c5c565b600082511115610c4e578082604051602001610c369291906123f9565b60405160208183030381529060405292505050610c5c565b610c5784611601565b925050505b919050565b6000600560008473ffffffffffffffffffffffffffffffffffffffff1673ffffffffffffffffffffffffffffffffffffffff16815260200190815260200160002060008373ffffffffffffffffffffffffffffffffffffffff1673ffffffffffffffffffffffffffffffffffffffff16815260200190815260200160002060009054906101000a900460ff16905092915050565b610cfd610ec3565b73ffffffffffffffffffffffffffffffffffffffff16610d1b6108ef565b73ffffffffffffffffffffffffffffffffffffffff1614610d71576040517f08c379a0000000000000000000000000000000000000000000000000000000008152600401610d6890612681565b60405180910390fd5b600073ffffffffffffffffffffffffffffffffffffffff168173ffffffffffffffffffffffffffffffffffffffff161415610de1576040517f08c379a0000000000000000000000000000000000000000000000000000000008152600401610dd8906124e1565b60405180910390fd5b610dea816112c9565b50565b60007f01ffc9a7000000000000000000000000000000000000000000000000000000007bffffffffffffffffffffffffffffffffffffffffffffffffffffffff1916827bffffffffffffffffffffffffffffffffffffffffffffffffffffffff1916149050919050565b60008073ffffffffffffffffffffffffffffffffffffffff166002600084815260200190815260200160002060009054906101000a900473ffffffffffffffffffffffffffffffffffffffff1673ffffffffffffffffffffffffffffffffffffffff1614159050919050565b600033905090565b816004600083815260200190815260200160002060006101000a81548173ffffffffffffffffffffffffffffffffffffffff021916908373ffffffffffffffffffffffffffffffffffffffff160217905550808273ffffffffffffffffffffffffffffffffffffffff16610f3e836106fd565b73ffffffffffffffffffffffffffffffffffffffff167f8c5be1e5ebec7d5bd14f71427d1e84f3dd0314c0f7b2291e5b200ac8c7c3b92560405160405180910390a45050565b6000610f8f82610e57565b610fce576040517f08c379a0000000000000000000000000000000000000000000000000000000008152600401610fc590612581565b60405180910390fd5b6000610fd9836106fd565b90508073ffffffffffffffffffffffffffffffffffffffff168473ffffffffffffffffffffffffffffffffffffffff16148061101b575061101a8185610c61565b5b8061105957508373ffffffffffffffffffffffffffffffffffffffff16611041846104e0565b73ffffffffffffffffffffffffffffffffffffffff16145b91505092915050565b8273ffffffffffffffffffffffffffffffffffffffff16611082826106fd565b73ffffffffffffffffffffffffffffffffffffffff16146110d8576040517f08c379a00000000000000000000000000000000000000000000000000000000081526004016110cf90612501565b60405180910390fd5b600073ffffffffffffffffffffffffffffffffffffffff168273ffffffffffffffffffffffffffffffffffffffff161415611148576040517f08c379a000000000000000000000000000000000000000000000000000000000815260040161113f90612541565b60405180910390fd5b6111538383836116a8565b61115e600082610ecb565b6001600360008573ffffffffffffffffffffffffffffffffffffffff1673ffffffffffffffffffffffffffffffffffffffff16815260200190815260200160002060008282546111ae919061289d565b925050819055506001600360008473ffffffffffffffffffffffffffffffffffffffff1673ffffffffffffffffffffffffffffffffffffffff16815260200190815260200160002060008282546112059190612816565b92505081905550816002600083815260200190815260200160002060006101000a81548173ffffffffffffffffffffffffffffffffffffffff021916908373ffffffffffffffffffffffffffffffffffffffff160217905550808273ffffffffffffffffffffffffffffffffffffffff168473ffffffffffffffffffffffffffffffffffffffff167fddf252ad1be2c89b69c2b068fc378daa952ba7f163c4a11628f55a4df523b3ef60405160405180910390a46112c48383836116ad565b505050565b6000600760009054906101000a900473ffffffffffffffffffffffffffffffffffffffff16905081600760006101000a81548173ffffffffffffffffffffffffffffffffffffffff021916908373ffffffffffffffffffffffffffffffffffffffff1602179055508173ffffffffffffffffffffffffffffffffffffffff168173ffffffffffffffffffffffffffffffffffffffff167f8be0079c531659141344cd1fd0a4f28419497f9722a3daafe3b4186f6b6457e060405160405180910390a35050565b6113a98282604051806020016040528060008152506116b2565b5050565b6113b682610e57565b6113f5576040517f08c379a00000000000000000000000000000000000000000000000000000000081526004016113ec90612601565b60405180910390fd5b8060066000848152602001908152602001600020908051906020019061141c929190611c4e565b505050565b8173ffffffffffffffffffffffffffffffffffffffff168373ffffffffffffffffffffffffffffffffffffffff161415611490576040517f08c379a000000000000000000000000000000000000000000000000000000000815260040161148790612561565b60405180910390fd5b80600560008573ffffffffffffffffffffffffffffffffffffffff1673ffffffffffffffffffffffffffffffffffffffff16815260200190815260200160002060008473ffffffffffffffffffffffffffffffffffffffff1673ffffffffffffffffffffffffffffffffffffffff16815260200190815260200160002060006101000a81548160ff0219169083151502179055508173ffffffffffffffffffffffffffffffffffffffff168373ffffffffffffffffffffffffffffffffffffffff167f17307eab39ab6107e8899845ad3d59bd9653f200f220920489ca2b5937696c31836040516115819190612484565b60405180910390a3505050565b611599848484611062565b6115a58484848461170d565b6115e4576040517f08c379a00000000000000000000000000000000000000000000000000000000081526004016115db906124c1565b60405180910390fd5b50505050565b606060405180602001604052806000815250905090565b606061160c82610e57565b61164b576040517f08c379a0000000000000000000000000000000000000000000000000000000008152600401611642906126a1565b60405180910390fd5b60006116556115ea565b9050600081511161167557604051806020016040528060008152506116a0565b8061167f846118a4565b6040516020016116909291906123f9565b6040516020818303038152906040525b915050919050565b505050565b505050565b6116bc8383611a51565b6116c9600084848461170d565b611708576040517f08c379a00000000000000000000000000000000000000000000000000000000081526004016116ff906124c1565b60405180910390fd5b505050565b600061172e8473ffffffffffffffffffffffffffffffffffffffff16611c2b565b15611897578373ffffffffffffffffffffffffffffffffffffffff1663150b7a02611757610ec3565b8786866040518563ffffffff1660e01b81526004016117799493929190612438565b602060405180830381600087803b15801561179357600080fd5b505af19250505080156117c457506040513d601f19601f820116820180604052508101906117c19190612061565b60015b611847573d80600081146117f4576040519150601f19603f3d011682016040523d82523d6000602084013e6117f9565b606091505b5060008151141561183f576040517f08c379a0000000000000000000000000000000000000000000000000000000008152600401611836906124c1565b60405180910390fd5b805181602001fd5b63150b7a0260e01b7bffffffffffffffffffffffffffffffffffffffffffffffffffffffff1916817bffffffffffffffffffffffffffffffffffffffffffffffffffffffff19161491505061189c565b600190505b949350505050565b606060008214156118ec576040518060400160405280600181526020017f30000000000000000000000000000000000000000000000000000000000000008152509050611a4c565b600082905060005b6000821461191e578080611907906129ea565b915050600a82611917919061286c565b91506118f4565b60008167ffffffffffffffff811115611960577f4e487b7100000000000000000000000000000000000000000000000000000000600052604160045260246000fd5b6040519080825280601f01601f1916602001820160405280156119925781602001600182028036833780820191505090505b5090505b60008514611a45576001826119ab919061289d565b9150600a856119ba9190612a33565b60306119c69190612816565b60f81b818381518110611a02577f4e487b7100000000000000000000000000000000000000000000000000000000600052603260045260246000fd5b60200101907effffffffffffffffffffffffffffffffffffffffffffffffffffffffffffff1916908160001a905350600a85611a3e919061286c565b9450611996565b8093505050505b919050565b600073ffffffffffffffffffffffffffffffffffffffff168273ffffffffffffffffffffffffffffffffffffffff161415611ac1576040517f08c379a0000000000000000000000000000000000000000000000000000000008152600401611ab890612621565b60405180910390fd5b611aca81610e57565b15611b0a576040517f08c379a0000000000000000000000000000000000000000000000000000000008152600401611b0190612521565b60405180910390fd5b611b16600083836116a8565b6001600360008473ffffffffffffffffffffffffffffffffffffffff1673ffffffffffffffffffffffffffffffffffffffff1681526020019081526020016000206000828254611b669190612816565b92505081905550816002600083815260200190815260200160002060006101000a81548173ffffffffffffffffffffffffffffffffffffffff021916908373ffffffffffffffffffffffffffffffffffffffff160217905550808273ffffffffffffffffffffffffffffffffffffffff16600073ffffffffffffffffffffffffffffffffffffffff167fddf252ad1be2c89b69c2b068fc378daa952ba7f163c4a11628f55a4df523b3ef60405160405180910390a4611c27600083836116ad565b5050565b6000808273ffffffffffffffffffffffffffffffffffffffff163b119050919050565b828054611c5a90612987565b90600052602060002090601f016020900481019282611c7c5760008555611cc3565b82601f10611c9557805160ff1916838001178555611cc3565b82800160010185558215611cc3579182015b82811115611cc2578251825591602001919060010190611ca7565b5b509050611cd09190611cd4565b5090565b5b80821115611ced576000816000905550600101611cd5565b5090565b6000611d04611cff84612771565b61274c565b905082815260208101848484011115611d1c57600080fd5b611d27848285612945565b509392505050565b6000611d42611d3d846127a2565b61274c565b905082815260208101848484011115611d5a57600080fd5b611d65848285612945565b509392505050565b600081359050611d7c81613027565b92915050565b600081359050611d918161303e565b92915050565b600081359050611da681613055565b92915050565b600081519050611dbb81613055565b92915050565b600082601f830112611dd257600080fd5b8135611de2848260208601611cf1565b91505092915050565b600082601f830112611dfc57600080fd5b8135611e0c848260208601611d2f565b91505092915050565b600081359050611e248161306c565b92915050565b600060208284031215611e3c57600080fd5b6000611e4a84828501611d6d565b91505092915050565b60008060408385031215611e6657600080fd5b6000611e7485828601611d6d565b9250506020611e8585828601611d6d565b9150509250929050565b600080600060608486031215611ea457600080fd5b6000611eb286828701611d6d565b9350506020611ec386828701611d6d565b9250506040611ed486828701611e15565b9150509250925092565b60008060008060808587031215611ef457600080fd5b6000611f0287828801611d6d565b9450506020611f1387828801611d6d565b9350506040611f2487828801611e15565b925050606085013567ffffffffffffffff811115611f4157600080fd5b611f4d87828801611dc1565b91505092959194509250565b60008060408385031215611f6c57600080fd5b6000611f7a85828601611d6d565b9250506020611f8b85828601611d82565b9150509250929050565b60008060408385031215611fa857600080fd5b6000611fb685828601611d6d565b9250506020611fc785828601611e15565b9150509250929050565b600080600060608486031215611fe657600080fd5b6000611ff486828701611d6d565b935050602061200586828701611e15565b925050604084013567ffffffffffffffff81111561202257600080fd5b61202e86828701611deb565b9150509250925092565b60006020828403121561204a57600080fd5b600061205884828501611d97565b91505092915050565b60006020828403121561207357600080fd5b600061208184828501611dac565b91505092915050565b60006020828403121561209c57600080fd5b60006120aa84828501611e15565b91505092915050565b6120bc816128d1565b82525050565b6120cb816128e3565b82525050565b60006120dc826127d3565b6120e681856127e9565b93506120f6818560208601612954565b6120ff81612b20565b840191505092915050565b6000612115826127de565b61211f81856127fa565b935061212f818560208601612954565b61213881612b20565b840191505092915050565b600061214e826127de565b612158818561280b565b9350612168818560208601612954565b80840191505092915050565b60006121816032836127fa565b915061218c82612b31565b604082019050919050565b60006121a46026836127fa565b91506121af82612b80565b604082019050919050565b60006121c76025836127fa565b91506121d282612bcf565b604082019050919050565b60006121ea601c836127fa565b91506121f582612c1e565b602082019050919050565b600061220d6024836127fa565b915061221882612c47565b604082019050919050565b60006122306019836127fa565b915061223b82612c96565b602082019050919050565b6000612253602c836127fa565b915061225e82612cbf565b604082019050919050565b60006122766038836127fa565b915061228182612d0e565b604082019050919050565b6000612299602a836127fa565b91506122a482612d5d565b604082019050919050565b60006122bc6029836127fa565b91506122c782612dac565b604082019050919050565b60006122df602e836127fa565b91506122ea82612dfb565b604082019050919050565b60006123026020836127fa565b915061230d82612e4a565b602082019050919050565b60006123256031836127fa565b915061233082612e73565b604082019050919050565b6000612348602c836127fa565b915061235382612ec2565b604082019050919050565b600061236b6020836127fa565b915061237682612f11565b602082019050919050565b600061238e602f836127fa565b915061239982612f3a565b604082019050919050565b60006123b16021836127fa565b91506123bc82612f89565b604082019050919050565b60006123d46031836127fa565b91506123df82612fd8565b604082019050919050565b6123f38161293b565b82525050565b60006124058285612143565b91506124118284612143565b91508190509392505050565b600060208201905061243260008301846120b3565b92915050565b600060808201905061244d60008301876120b3565b61245a60208301866120b3565b61246760408301856123ea565b818103606083015261247981846120d1565b905095945050505050565b600060208201905061249960008301846120c2565b92915050565b600060208201905081810360008301526124b9818461210a565b905092915050565b600060208201905081810360008301526124da81612174565b9050919050565b600060208201905081810360008301526124fa81612197565b9050919050565b6000602082019050818103600083015261251a816121ba565b9050919050565b6000602082019050818103600083015261253a816121dd565b9050919050565b6000602082019050818103600083015261255a81612200565b9050919050565b6000602082019050818103600083015261257a81612223565b9050919050565b6000602082019050818103600083015261259a81612246565b9050919050565b600060208201905081810360008301526125ba81612269565b9050919050565b600060208201905081810360008301526125da8161228c565b9050919050565b600060208201905081810360008301526125fa816122af565b9050919050565b6000602082019050818103600083015261261a816122d2565b9050919050565b6000602082019050818103600083015261263a816122f5565b9050919050565b6000602082019050818103600083015261265a81612318565b9050919050565b6000602082019050818103600083015261267a8161233b565b9050919050565b6000602082019050818103600083015261269a8161235e565b9050919050565b600060208201905081810360008301526126ba81612381565b9050919050565b600060208201905081810360008301526126da816123a4565b9050919050565b600060208201905081810360008301526126fa816123c7565b9050919050565b600060208201905061271660008301846123ea565b92915050565b600060408201905061273160008301856123ea565b8181036020830152612743818461210a565b90509392505050565b6000612756612767565b905061276282826129b9565b919050565b6000604051905090565b600067ffffffffffffffff82111561278c5761278b612af1565b5b61279582612b20565b9050602081019050919050565b600067ffffffffffffffff8211156127bd576127bc612af1565b5b6127c682612b20565b9050602081019050919050565b600081519050919050565b600081519050919050565b600082825260208201905092915050565b600082825260208201905092915050565b600081905092915050565b60006128218261293b565b915061282c8361293b565b9250827fffffffffffffffffffffffffffffffffffffffffffffffffffffffffffffffff0382111561286157612860612a64565b5b828201905092915050565b60006128778261293b565b91506128828361293b565b92508261289257612891612a93565b5b828204905092915050565b60006128a88261293b565b91506128b38361293b565b9250828210156128c6576128c5612a64565b5b828203905092915050565b60006128dc8261291b565b9050919050565b60008115159050919050565b60007fffffffff0000000000000000000000000000000000000000000000000000000082169050919050565b600073ffffffffffffffffffffffffffffffffffffffff82169050919050565b6000819050919050565b82818337600083830152505050565b60005b83811015612972578082015181840152602081019050612957565b83811115612981576000848401525b50505050565b6000600282049050600182168061299f57607f821691505b602082108114156129b3576129b2612ac2565b5b50919050565b6129c282612b20565b810181811067ffffffffffffffff821117156129e1576129e0612af1565b5b80604052505050565b60006129f58261293b565b91507fffffffffffffffffffffffffffffffffffffffffffffffffffffffffffffffff821415612a2857612a27612a64565b5b600182019050919050565b6000612a3e8261293b565b9150612a498361293b565b925082612a5957612a58612a93565b5b828206905092915050565b7f4e487b7100000000000000000000000000000000000000000000000000000000600052601160045260246000fd5b7f4e487b7100000000000000000000000000000000000000000000000000000000600052601260045260246000fd5b7f4e487b7100000000000000000000000000000000000000000000000000000000600052602260045260246000fd5b7f4e487b7100000000000000000000000000000000000000000000000000000000600052604160045260246000fd5b6000601f19601f8301169050919050565b7f4552433732313a207472616e7366657220746f206e6f6e20455243373231526560008201527f63656976657220696d706c656d656e7465720000000000000000000000000000602082015250565b7f4f776e61626c653a206e6577206f776e657220697320746865207a65726f206160008201527f6464726573730000000000000000000000000000000000000000000000000000602082015250565b7f4552433732313a207472616e736665722066726f6d20696e636f72726563742060008201527f6f776e6572000000000000000000000000000000000000000000000000000000602082015250565b7f4552433732313a20746f6b656e20616c7265616479206d696e74656400000000600082015250565b7f4552433732313a207472616e7366657220746f20746865207a65726f2061646460008201527f7265737300000000000000000000000000000000000000000000000000000000602082015250565b7f4552433732313a20617070726f766520746f2063616c6c657200000000000000600082015250565b7f4552433732313a206f70657261746f7220717565727920666f72206e6f6e657860008201527f697374656e7420746f6b656e0000000000000000000000000000000000000000602082015250565b7f4552433732313a20617070726f76652063616c6c6572206973206e6f74206f7760008201527f6e6572206e6f7220617070726f76656420666f7220616c6c0000000000000000602082015250565b7f4552433732313a2062616c616e636520717565727920666f7220746865207a6560008201527f726f206164647265737300000000000000000000000000000000000000000000602082015250565b7f4552433732313a206f776e657220717565727920666f72206e6f6e657869737460008201527f656e7420746f6b656e0000000000000000000000000000000000000000000000602082015250565b7f45524337323155524953746f726167653a2055524920736574206f66206e6f6e60008201527f6578697374656e7420746f6b656e000000000000000000000000000000000000602082015250565b7f4552433732313a206d696e7420746f20746865207a65726f2061646472657373600082015250565b7f45524337323155524953746f726167653a2055524920717565727920666f722060008201527f6e6f6e6578697374656e7420746f6b656e000000000000000000000000000000602082015250565b7f4552433732313a20617070726f76656420717565727920666f72206e6f6e657860008201527f697374656e7420746f6b656e0000000000000000000000000000000000000000602082015250565b7f4f776e61626c653a2063616c6c6572206973206e6f7420746865206f776e6572600082015250565b7f4552433732314d657461646174613a2055524920717565727920666f72206e6f60008201527f6e6578697374656e7420746f6b656e0000000000000000000000000000000000602082015250565b7f4552433732313a20617070726f76616c20746f2063757272656e74206f776e6560008201527f7200000000000000000000000000000000000000000000000000000000000000602082015250565b7f4552433732313a207472616e736665722063616c6c6572206973206e6f74206f60008201527f776e6572206e6f7220617070726f766564000000000000000000000000000000602082015250565b613030816128d1565b811461303b57600080fd5b50565b613047816128e3565b811461305257600080fd5b50565b61305e816128ef565b811461306957600080fd5b50565b6130758161293b565b811461308057600080fd5b5056fea2646970667358221220953fe356cbb7b8ff2f4b2919c5e5e4174d89bc0d8603b4e8f975369dd819155164736f6c63430008040033",
  "linkReferences": {},
  "deployedLinkReferences": {}
}