{
  "_format": "hh-sol-artifact-1",
  "contractName": "RealMonkeyCollection",
  "sourceName": "contracts/RealMonkeyCollection.sol",
  "abi": [
    {
      "inputs": [],
      "stateMutability": "nonpayable",
      "type": "constructor"
    },
    {
      "anonymous": false,
      "inputs": [
        {
          "indexed": true,
          "internalType": "address",
          "name": "owner",
          "type": "address"
        },
        {
          "indexed": true,
          "internalType": "address",
          "name": "approved",
          "type": "address"
        },
        {
          "indexed": true,
          "internalType": "uint256",
          "name": "tokenId",
          "type": "uint256"
        }
      ],
      "name": "Approval",
      "type": "event"
    },
    {
      "anonymous": false,
      "inputs": [
        {
          "indexed": true,
          "internalType": "address",
          "name": "owner",
          "type": "address"
        },
        {
          "indexed": true,
          "internalType": "address",
          "name": "operator",
          "type": "address"
        },
        {
          "indexed": false,
          "internalType": "bool",
          "name": "approved",
          "type": "bool"
        }
      ],
      "name": "ApprovalForAll",
      "type": "event"
    },
    {
      "anonymous": false,
      "inputs": [
        {
          "indexed": true,
          "internalType": "address",
          "name": "to",
          "type": "address"
        },
        {
          "indexed": false,
          "internalType": "uint256",
          "name": "tokenId",
          "type": "uint256"
        },
        {
          "indexed": false,
          "internalType": "string",
          "name": "tokenURI",
          "type": "string"
        }
      ],
      "name": "NftMinted",
      "type": "event"
    },
    {
      "anonymous": false,
      "inputs": [
        {
          "indexed": true,
          "internalType": "address",
          "name": "previousOwner",
          "type": "address"
        },
        {
          "indexed": true,
          "internalType": "address",
          "name": "newOwner",
          "type": "address"
        }
      ],
      "name": "OwnershipTransferred",
      "type": "event"
    },
    {
      "anonymous": false,
      "inputs": [
        {
          "indexed": true,
          "internalType": "address",
          "name": "from",
          "type": "address"
        },
        {
          "indexed": true,
          "internalType": "address",
          "name": "to",
          "type": "address"
        },
        {
          "indexed": true,
          "internalType": "uint256",
          "name": "tokenId",
          "type": "uint256"
        }
      ],
      "name": "Transfer",
      "type": "event"
    },
    {
      "inputs": [
        {
          "internalType": "address",
          "name": "to",
          "type": "address"
        },
        {
          "internalType": "uint256",
          "name": "tokenId",
          "type": "uint256"
        }
      ],
      "name": "approve",
      "outputs": [],
      "stateMutability": "nonpayable",
      "type": "function"
    },
    {
      "inputs": [
        {
          "internalType": "address",
          "name": "owner",
          "type": "address"
        }
      ],
      "name": "balanceOf",
      "outputs": [
        {
          "internalType": "uint256",
          "name": "",
          "type": "uint256"
        }
      ],
      "stateMutability": "view",
      "type": "function"
    },
    {
      "inputs": [
        {
          "internalType": "uint256",
          "name": "tokenId",
          "type": "uint256"
        }
      ],
      "name": "getApproved",
      "outputs": [
        {
          "internalType": "address",
          "name": "",
          "type": "address"
        }
      ],
      "stateMutability": "view",
      "type": "function"
    },
    {
      "inputs": [
        {
          "internalType": "address",
          "name": "owner",
          "type": "address"
        },
        {
          "internalType": "address",
          "name": "operator",
          "type": "address"
        }
      ],
      "name": "isApprovedForAll",
      "outputs": [
        {
          "internalType": "bool",
          "name": "",
          "type": "bool"
        }
      ],
      "stateMutability": "view",
      "type": "function"
    },
    {
      "inputs": [
        {
          "internalType": "address",
          "name": "to",
          "type": "address"
        },
        {
          "internalType": "uint256",
          "name": "tokenId",
          "type": "uint256"
        }
      ],
      "name": "mintNft",
      "outputs": [
        {
          "internalType": "uint256",
          "name": "",
          "type": "uint256"
        }
      ],
      "stateMutability": "nonpayable",
      "type": "function"
    },
    {
      "inputs": [],
      "name": "name",
      "outputs": [
        {
          "internalType": "string",
          "name": "",
          "type": "string"
        }
      ],
      "stateMutability": "view",
      "type": "function"
    },
    {
      "inputs": [],
      "name": "owner",
      "outputs": [
        {
          "internalType": "address",
          "name": "",
          "type": "address"
        }
      ],
      "stateMutability": "view",
      "type": "function"
    },
    {
      "inputs": [
        {
          "internalType": "uint256",
          "name": "tokenId",
          "type": "uint256"
        }
      ],
      "name": "ownerOf",
      "outputs": [
        {
          "internalType": "address",
          "name": "",
          "type": "address"
        }
      ],
      "stateMutability": "view",
      "type": "function"
    },
    {
      "inputs": [],
      "name": "renounceOwnership",
      "outputs": [],
      "stateMutability": "nonpayable",
      "type": "function"
    },
    {
      "inputs": [
        {
          "internalType": "address",
          "name": "from",
          "type": "address"
        },
        {
          "internalType": "address",
          "name": "to",
          "type": "address"
        },
        {
          "internalType": "uint256",
          "name": "tokenId",
          "type": "uint256"
        }
      ],
      "name": "safeTransferFrom",
      "outputs": [],
      "stateMutability": "nonpayable",
      "type": "function"
    },
    {
      "inputs": [
        {
          "internalType": "address",
          "name": "from",
          "type": "address"
        },
        {
          "internalType": "address",
          "name": "to",
          "type": "address"
        },
        {
          "internalType": "uint256",
          "name": "tokenId",
          "type": "uint256"
        },
        {
          "internalType": "bytes",
          "name": "_data",
          "type": "bytes"
        }
      ],
      "name": "safeTransferFrom",
      "outputs": [],
      "stateMutability": "nonpayable",
      "type": "function"
    },
    {
      "inputs": [
        {
          "internalType": "address",
          "name": "operator",
          "type": "address"
        },
        {
          "internalType": "bool",
          "name": "approved",
          "type": "bool"
        }
      ],
      "name": "setApprovalForAll",
      "outputs": [],
      "stateMutability": "nonpayable",
      "type": "function"
    },
    {
      "inputs": [
        {
          "internalType": "bytes4",
          "name": "interfaceId",
          "type": "bytes4"
        }
      ],
      "name": "supportsInterface",
      "outputs": [
        {
          "internalType": "bool",
          "name": "",
          "type": "bool"
        }
      ],
      "stateMutability": "view",
      "type": "function"
    },
    {
      "inputs": [],
      "name": "symbol",
      "outputs": [
        {
          "internalType": "string",
          "name": "",
          "type": "string"
        }
      ],
      "stateMutability": "view",
      "type": "function"
    },
    {
      "inputs": [
        {
          "internalType": "uint256",
          "name": "tokenId",
          "type": "uint256"
        }
      ],
      "name": "tokenURI",
      "outputs": [
        {
          "internalType": "string",
          "name": "",
          "type": "string"
        }
      ],
      "stateMutability": "view",
      "type": "function"
    },
    {
      "inputs": [
        {
          "internalType": "address",
          "name": "from",
          "type": "address"
        },
        {
          "internalType": "address",
          "name": "to",
          "type": "address"
        },
        {
          "internalType": "uint256",
          "name": "tokenId",
          "type": "uint256"
        }
      ],
      "name": "transferFrom",
      "outputs": [],
      "stateMutability": "nonpayable",
      "type": "function"
    },
    {
      "inputs": [
        {
          "internalType": "address",
          "name": "newOwner",
          "type": "address"
        }
      ],
      "name": "transferOwnership",
      "outputs": [],
      "stateMutability": "nonpayable",
      "type": "function"
    }
  ],
  "bytecode": "0x60806040523480156200001157600080fd5b506040518060400160405280601681526020017f5265616c204d6f6e6b657920436f6c6c656374696f6e000000000000000000008152506040518060400160405280600381526020017f524d430000000000000000000000000000000000000000000000000000000000815250816000908051906020019062000096929190620001a6565b508060019080519060200190620000af929190620001a6565b505050620000d2620000c6620000d860201b60201c565b620000e060201b60201c565b620002bb565b600033905090565b6000600660009054906101000a900473ffffffffffffffffffffffffffffffffffffffff16905081600660006101000a81548173ffffffffffffffffffffffffffffffffffffffff021916908373ffffffffffffffffffffffffffffffffffffffff1602179055508173ffffffffffffffffffffffffffffffffffffffff168173ffffffffffffffffffffffffffffffffffffffff167f8be0079c531659141344cd1fd0a4f28419497f9722a3daafe3b4186f6b6457e060405160405180910390a35050565b828054620001b49062000256565b90600052602060002090601f016020900481019282620001d8576000855562000224565b82601f10620001f357805160ff191683800117855562000224565b8280016001018555821562000224579182015b828111156200022357825182559160200191906001019062000206565b5b50905062000233919062000237565b5090565b5b808211156200025257600081600090555060010162000238565b5090565b600060028204905060018216806200026f57607f821691505b602082108114156200028657620002856200028c565b5b50919050565b7f4e487b7100000000000000000000000000000000000000000000000000000000600052602260045260246000fd5b612bd680620002cb6000396000f3fe608060405234801561001057600080fd5b506004361061010b5760003560e01c8063715018a6116100a2578063b88d4fde11610071578063b88d4fde146102a4578063c87b56dd146102c0578063d1194e2b146102f0578063e985e9c514610320578063f2fde38b146103505761010b565b8063715018a6146102425780638da5cb5b1461024c57806395d89b411461026a578063a22cb465146102885761010b565b806323b872dd116100de57806323b872dd146101aa57806342842e0e146101c65780636352211e146101e257806370a08231146102125761010b565b806301ffc9a71461011057806306fdde0314610140578063081812fc1461015e578063095ea7b31461018e575b600080fd5b61012a60048036038101906101259190611caa565b61036c565b60405161013791906120b0565b60405180910390f35b61014861044e565b60405161015591906120cb565b60405180910390f35b61017860048036038101906101739190611cfc565b6104e0565b6040516101859190612049565b60405180910390f35b6101a860048036038101906101a39190611c6e565b610565565b005b6101c460048036038101906101bf9190611b68565b61067d565b005b6101e060048036038101906101db9190611b68565b6106dd565b005b6101fc60048036038101906101f79190611cfc565b6106fd565b6040516102099190612049565b60405180910390f35b61022c60048036038101906102279190611b03565b6107af565b60405161023991906122ed565b60405180910390f35b61024a610867565b005b6102546108ef565b6040516102619190612049565b60405180910390f35b610272610919565b60405161027f91906120cb565b60405180910390f35b6102a2600480360381019061029d9190611c32565b6109ab565b005b6102be60048036038101906102b99190611bb7565b6109c1565b005b6102da60048036038101906102d59190611cfc565b610a23565b6040516102e791906120cb565b60405180910390f35b61030a60048036038101906103059190611c6e565b610aca565b60405161031791906122ed565b60405180910390f35b61033a60048036038101906103359190611b2c565b610bb3565b60405161034791906120b0565b60405180910390f35b61036a60048036038101906103659190611b03565b610c47565b005b60007f80ac58cd000000000000000000000000000000000000000000000000000000007bffffffffffffffffffffffffffffffffffffffffffffffffffffffff1916827bffffffffffffffffffffffffffffffffffffffffffffffffffffffff1916148061043757507f5b5e139f000000000000000000000000000000000000000000000000000000007bffffffffffffffffffffffffffffffffffffffffffffffffffffffff1916827bffffffffffffffffffffffffffffffffffffffffffffffffffffffff1916145b80610447575061044682610d3f565b5b9050919050565b60606000805461045d90612542565b80601f016020809104026020016040519081016040528092919081815260200182805461048990612542565b80156104d65780601f106104ab576101008083540402835291602001916104d6565b820191906000526020600020905b8154815290600101906020018083116104b957829003601f168201915b5050505050905090565b60006104eb82610da9565b61052a576040517f08c379a00000000000000000000000000000000000000000000000000000000081526004016105219061224d565b60405180910390fd5b6004600083815260200190815260200160002060009054906101000a900473ffffffffffffffffffffffffffffffffffffffff169050919050565b6000610570826106fd565b90508073ffffffffffffffffffffffffffffffffffffffff168373ffffffffffffffffffffffffffffffffffffffff1614156105e1576040517f08c379a00000000000000000000000000000000000000000000000000000000081526004016105d8906122ad565b60405180910390fd5b8073ffffffffffffffffffffffffffffffffffffffff16610600610e15565b73ffffffffffffffffffffffffffffffffffffffff16148061062f575061062e81610629610e15565b610bb3565b5b61066e576040517f08c379a0000000000000000000000000000000000000000000000000000000008152600401610665906121cd565b60405180910390fd5b6106788383610e1d565b505050565b61068e610688610e15565b82610ed6565b6106cd576040517f08c379a00000000000000000000000000000000000000000000000000000000081526004016106c4906122cd565b60405180910390fd5b6106d8838383610fb4565b505050565b6106f8838383604051806020016040528060008152506109c1565b505050565b6000806002600084815260200190815260200160002060009054906101000a900473ffffffffffffffffffffffffffffffffffffffff169050600073ffffffffffffffffffffffffffffffffffffffff168173ffffffffffffffffffffffffffffffffffffffff1614156107a6576040517f08c379a000000000000000000000000000000000000000000000000000000000815260040161079d9061220d565b60405180910390fd5b80915050919050565b60008073ffffffffffffffffffffffffffffffffffffffff168273ffffffffffffffffffffffffffffffffffffffff161415610820576040517f08c379a0000000000000000000000000000000000000000000000000000000008152600401610817906121ed565b60405180910390fd5b600360008373ffffffffffffffffffffffffffffffffffffffff1673ffffffffffffffffffffffffffffffffffffffff168152602001908152602001600020549050919050565b61086f610e15565b73ffffffffffffffffffffffffffffffffffffffff1661088d6108ef565b73ffffffffffffffffffffffffffffffffffffffff16146108e3576040517f08c379a00000000000000000000000000000000000000000000000000000000081526004016108da9061226d565b60405180910390fd5b6108ed600061121b565b565b6000600660009054906101000a900473ffffffffffffffffffffffffffffffffffffffff16905090565b60606001805461092890612542565b80601f016020809104026020016040519081016040528092919081815260200182805461095490612542565b80156109a15780601f10610976576101008083540402835291602001916109a1565b820191906000526020600020905b81548152906001019060200180831161098457829003601f168201915b5050505050905090565b6109bd6109b6610e15565b83836112e1565b5050565b6109d26109cc610e15565b83610ed6565b610a11576040517f08c379a0000000000000000000000000000000000000000000000000000000008152600401610a08906122cd565b60405180910390fd5b610a1d8484848461144e565b50505050565b6060610a2e82610da9565b610a6d576040517f08c379a0000000000000000000000000000000000000000000000000000000008152600401610a649061228d565b60405180910390fd5b6000610a776114aa565b90506000815111610a975760405180602001604052806000815250610ac2565b80610aa1846114e7565b604051602001610ab2929190612025565b6040516020818303038152906040525b915050919050565b6000610ad4610e15565b73ffffffffffffffffffffffffffffffffffffffff16610af26108ef565b73ffffffffffffffffffffffffffffffffffffffff1614610b48576040517f08c379a0000000000000000000000000000000000000000000000000000000008152600401610b3f9061226d565b60405180910390fd5b610b528383611694565b8273ffffffffffffffffffffffffffffffffffffffff167f8e503b21c99b65aca8c7496e1574773871f0a73bf9262e58fb99528b46fd776a83610b9485610a23565b604051610ba2929190612308565b60405180910390a281905092915050565b6000600560008473ffffffffffffffffffffffffffffffffffffffff1673ffffffffffffffffffffffffffffffffffffffff16815260200190815260200160002060008373ffffffffffffffffffffffffffffffffffffffff1673ffffffffffffffffffffffffffffffffffffffff16815260200190815260200160002060009054906101000a900460ff16905092915050565b610c4f610e15565b73ffffffffffffffffffffffffffffffffffffffff16610c6d6108ef565b73ffffffffffffffffffffffffffffffffffffffff1614610cc3576040517f08c379a0000000000000000000000000000000000000000000000000000000008152600401610cba9061226d565b60405180910390fd5b600073ffffffffffffffffffffffffffffffffffffffff168173ffffffffffffffffffffffffffffffffffffffff161415610d33576040517f08c379a0000000000000000000000000000000000000000000000000000000008152600401610d2a9061210d565b60405180910390fd5b610d3c8161121b565b50565b60007f01ffc9a7000000000000000000000000000000000000000000000000000000007bffffffffffffffffffffffffffffffffffffffffffffffffffffffff1916827bffffffffffffffffffffffffffffffffffffffffffffffffffffffff1916149050919050565b60008073ffffffffffffffffffffffffffffffffffffffff166002600084815260200190815260200160002060009054906101000a900473ffffffffffffffffffffffffffffffffffffffff1673ffffffffffffffffffffffffffffffffffffffff1614159050919050565b600033905090565b816004600083815260200190815260200160002060006101000a81548173ffffffffffffffffffffffffffffffffffffffff021916908373ffffffffffffffffffffffffffffffffffffffff160217905550808273ffffffffffffffffffffffffffffffffffffffff16610e90836106fd565b73ffffffffffffffffffffffffffffffffffffffff167f8c5be1e5ebec7d5bd14f71427d1e84f3dd0314c0f7b2291e5b200ac8c7c3b92560405160405180910390a45050565b6000610ee182610da9565b610f20576040517f08c379a0000000000000000000000000000000000000000000000000000000008152600401610f17906121ad565b60405180910390fd5b6000610f2b836106fd565b90508073ffffffffffffffffffffffffffffffffffffffff168473ffffffffffffffffffffffffffffffffffffffff161480610f6d5750610f6c8185610bb3565b5b80610fab57508373ffffffffffffffffffffffffffffffffffffffff16610f93846104e0565b73ffffffffffffffffffffffffffffffffffffffff16145b91505092915050565b8273ffffffffffffffffffffffffffffffffffffffff16610fd4826106fd565b73ffffffffffffffffffffffffffffffffffffffff161461102a576040517f08c379a00000000000000000000000000000000000000000000000000000000081526004016110219061212d565b60405180910390fd5b600073ffffffffffffffffffffffffffffffffffffffff168273ffffffffffffffffffffffffffffffffffffffff16141561109a576040517f08c379a00000000000000000000000000000000000000000000000000000000081526004016110919061216d565b60405180910390fd5b6110a583838361186e565b6110b0600082610e1d565b6001600360008573ffffffffffffffffffffffffffffffffffffffff1673ffffffffffffffffffffffffffffffffffffffff16815260200190815260200160002060008282546111009190612458565b925050819055506001600360008473ffffffffffffffffffffffffffffffffffffffff1673ffffffffffffffffffffffffffffffffffffffff168152602001908152602001600020600082825461115791906123d1565b92505081905550816002600083815260200190815260200160002060006101000a81548173ffffffffffffffffffffffffffffffffffffffff021916908373ffffffffffffffffffffffffffffffffffffffff160217905550808273ffffffffffffffffffffffffffffffffffffffff168473ffffffffffffffffffffffffffffffffffffffff167fddf252ad1be2c89b69c2b068fc378daa952ba7f163c4a11628f55a4df523b3ef60405160405180910390a4611216838383611873565b505050565b6000600660009054906101000a900473ffffffffffffffffffffffffffffffffffffffff16905081600660006101000a81548173ffffffffffffffffffffffffffffffffffffffff021916908373ffffffffffffffffffffffffffffffffffffffff1602179055508173ffffffffffffffffffffffffffffffffffffffff168173ffffffffffffffffffffffffffffffffffffffff167f8be0079c531659141344cd1fd0a4f28419497f9722a3daafe3b4186f6b6457e060405160405180910390a35050565b8173ffffffffffffffffffffffffffffffffffffffff168373ffffffffffffffffffffffffffffffffffffffff161415611350576040517f08c379a00000000000000000000000000000000000000000000000000000000081526004016113479061218d565b60405180910390fd5b80600560008573ffffffffffffffffffffffffffffffffffffffff1673ffffffffffffffffffffffffffffffffffffffff16815260200190815260200160002060008473ffffffffffffffffffffffffffffffffffffffff1673ffffffffffffffffffffffffffffffffffffffff16815260200190815260200160002060006101000a81548160ff0219169083151502179055508173ffffffffffffffffffffffffffffffffffffffff168373ffffffffffffffffffffffffffffffffffffffff167f17307eab39ab6107e8899845ad3d59bd9653f200f220920489ca2b5937696c318360405161144191906120b0565b60405180910390a3505050565b611459848484610fb4565b61146584848484611878565b6114a4576040517f08c379a000000000000000000000000000000000000000000000000000000000815260040161149b906120ed565b60405180910390fd5b50505050565b60606040518060400160405280600a81526020017f2f6d657461646174612f00000000000000000000000000000000000000000000815250905090565b6060600082141561152f576040518060400160405280600181526020017f3000000000000000000000000000000000000000000000000000000000000000815250905061168f565b600082905060005b6000821461156157808061154a906125a5565b915050600a8261155a9190612427565b9150611537565b60008167ffffffffffffffff8111156115a3577f4e487b7100000000000000000000000000000000000000000000000000000000600052604160045260246000fd5b6040519080825280601f01601f1916602001820160405280156115d55781602001600182028036833780820191505090505b5090505b60008514611688576001826115ee9190612458565b9150600a856115fd91906125ee565b603061160991906123d1565b60f81b818381518110611645577f4e487b7100000000000000000000000000000000000000000000000000000000600052603260045260246000fd5b60200101907effffffffffffffffffffffffffffffffffffffffffffffffffffffffffffff1916908160001a905350600a856116819190612427565b94506115d9565b8093505050505b919050565b600073ffffffffffffffffffffffffffffffffffffffff168273ffffffffffffffffffffffffffffffffffffffff161415611704576040517f08c379a00000000000000000000000000000000000000000000000000000000081526004016116fb9061222d565b60405180910390fd5b61170d81610da9565b1561174d576040517f08c379a00000000000000000000000000000000000000000000000000000000081526004016117449061214d565b60405180910390fd5b6117596000838361186e565b6001600360008473ffffffffffffffffffffffffffffffffffffffff1673ffffffffffffffffffffffffffffffffffffffff16815260200190815260200160002060008282546117a991906123d1565b92505081905550816002600083815260200190815260200160002060006101000a81548173ffffffffffffffffffffffffffffffffffffffff021916908373ffffffffffffffffffffffffffffffffffffffff160217905550808273ffffffffffffffffffffffffffffffffffffffff16600073ffffffffffffffffffffffffffffffffffffffff167fddf252ad1be2c89b69c2b068fc378daa952ba7f163c4a11628f55a4df523b3ef60405160405180910390a461186a60008383611873565b5050565b505050565b505050565b60006118998473ffffffffffffffffffffffffffffffffffffffff16611a0f565b15611a02578373ffffffffffffffffffffffffffffffffffffffff1663150b7a026118c2610e15565b8786866040518563ffffffff1660e01b81526004016118e49493929190612064565b602060405180830381600087803b1580156118fe57600080fd5b505af192505050801561192f57506040513d601f19601f8201168201806040525081019061192c9190611cd3565b60015b6119b2573d806000811461195f576040519150601f19603f3d011682016040523d82523d6000602084013e611964565b606091505b506000815114156119aa576040517f08c379a00000000000000000000000000000000000000000000000000000000081526004016119a1906120ed565b60405180910390fd5b805181602001fd5b63150b7a0260e01b7bffffffffffffffffffffffffffffffffffffffffffffffffffffffff1916817bffffffffffffffffffffffffffffffffffffffffffffffffffffffff191614915050611a07565b600190505b949350505050565b6000808273ffffffffffffffffffffffffffffffffffffffff163b119050919050565b6000611a45611a408461235d565b612338565b905082815260208101848484011115611a5d57600080fd5b611a68848285612500565b509392505050565b600081359050611a7f81612b44565b92915050565b600081359050611a9481612b5b565b92915050565b600081359050611aa981612b72565b92915050565b600081519050611abe81612b72565b92915050565b600082601f830112611ad557600080fd5b8135611ae5848260208601611a32565b91505092915050565b600081359050611afd81612b89565b92915050565b600060208284031215611b1557600080fd5b6000611b2384828501611a70565b91505092915050565b60008060408385031215611b3f57600080fd5b6000611b4d85828601611a70565b9250506020611b5e85828601611a70565b9150509250929050565b600080600060608486031215611b7d57600080fd5b6000611b8b86828701611a70565b9350506020611b9c86828701611a70565b9250506040611bad86828701611aee565b9150509250925092565b60008060008060808587031215611bcd57600080fd5b6000611bdb87828801611a70565b9450506020611bec87828801611a70565b9350506040611bfd87828801611aee565b925050606085013567ffffffffffffffff811115611c1a57600080fd5b611c2687828801611ac4565b91505092959194509250565b60008060408385031215611c4557600080fd5b6000611c5385828601611a70565b9250506020611c6485828601611a85565b9150509250929050565b60008060408385031215611c8157600080fd5b6000611c8f85828601611a70565b9250506020611ca085828601611aee565b9150509250929050565b600060208284031215611cbc57600080fd5b6000611cca84828501611a9a565b91505092915050565b600060208284031215611ce557600080fd5b6000611cf384828501611aaf565b91505092915050565b600060208284031215611d0e57600080fd5b6000611d1c84828501611aee565b91505092915050565b611d2e8161248c565b82525050565b611d3d8161249e565b82525050565b6000611d4e8261238e565b611d5881856123a4565b9350611d6881856020860161250f565b611d71816126db565b840191505092915050565b6000611d8782612399565b611d9181856123b5565b9350611da181856020860161250f565b611daa816126db565b840191505092915050565b6000611dc082612399565b611dca81856123c6565b9350611dda81856020860161250f565b80840191505092915050565b6000611df36032836123b5565b9150611dfe826126ec565b604082019050919050565b6000611e166026836123b5565b9150611e218261273b565b604082019050919050565b6000611e396025836123b5565b9150611e448261278a565b604082019050919050565b6000611e5c601c836123b5565b9150611e67826127d9565b602082019050919050565b6000611e7f6024836123b5565b9150611e8a82612802565b604082019050919050565b6000611ea26019836123b5565b9150611ead82612851565b602082019050919050565b6000611ec5602c836123b5565b9150611ed08261287a565b604082019050919050565b6000611ee86038836123b5565b9150611ef3826128c9565b604082019050919050565b6000611f0b602a836123b5565b9150611f1682612918565b604082019050919050565b6000611f2e6029836123b5565b9150611f3982612967565b604082019050919050565b6000611f516020836123b5565b9150611f5c826129b6565b602082019050919050565b6000611f74602c836123b5565b9150611f7f826129df565b604082019050919050565b6000611f976020836123b5565b9150611fa282612a2e565b602082019050919050565b6000611fba602f836123b5565b9150611fc582612a57565b604082019050919050565b6000611fdd6021836123b5565b9150611fe882612aa6565b604082019050919050565b60006120006031836123b5565b915061200b82612af5565b604082019050919050565b61201f816124f6565b82525050565b60006120318285611db5565b915061203d8284611db5565b91508190509392505050565b600060208201905061205e6000830184611d25565b92915050565b60006080820190506120796000830187611d25565b6120866020830186611d25565b6120936040830185612016565b81810360608301526120a58184611d43565b905095945050505050565b60006020820190506120c56000830184611d34565b92915050565b600060208201905081810360008301526120e58184611d7c565b905092915050565b6000602082019050818103600083015261210681611de6565b9050919050565b6000602082019050818103600083015261212681611e09565b9050919050565b6000602082019050818103600083015261214681611e2c565b9050919050565b6000602082019050818103600083015261216681611e4f565b9050919050565b6000602082019050818103600083015261218681611e72565b9050919050565b600060208201905081810360008301526121a681611e95565b9050919050565b600060208201905081810360008301526121c681611eb8565b9050919050565b600060208201905081810360008301526121e681611edb565b9050919050565b6000602082019050818103600083015261220681611efe565b9050919050565b6000602082019050818103600083015261222681611f21565b9050919050565b6000602082019050818103600083015261224681611f44565b9050919050565b6000602082019050818103600083015261226681611f67565b9050919050565b6000602082019050818103600083015261228681611f8a565b9050919050565b600060208201905081810360008301526122a681611fad565b9050919050565b600060208201905081810360008301526122c681611fd0565b9050919050565b600060208201905081810360008301526122e681611ff3565b9050919050565b60006020820190506123026000830184612016565b92915050565b600060408201905061231d6000830185612016565b818103602083015261232f8184611d7c565b90509392505050565b6000612342612353565b905061234e8282612574565b919050565b6000604051905090565b600067ffffffffffffffff821115612378576123776126ac565b5b612381826126db565b9050602081019050919050565b600081519050919050565b600081519050919050565b600082825260208201905092915050565b600082825260208201905092915050565b600081905092915050565b60006123dc826124f6565b91506123e7836124f6565b9250827fffffffffffffffffffffffffffffffffffffffffffffffffffffffffffffffff0382111561241c5761241b61261f565b5b828201905092915050565b6000612432826124f6565b915061243d836124f6565b92508261244d5761244c61264e565b5b828204905092915050565b6000612463826124f6565b915061246e836124f6565b9250828210156124815761248061261f565b5b828203905092915050565b6000612497826124d6565b9050919050565b60008115159050919050565b60007fffffffff0000000000000000000000000000000000000000000000000000000082169050919050565b600073ffffffffffffffffffffffffffffffffffffffff82169050919050565b6000819050919050565b82818337600083830152505050565b60005b8381101561252d578082015181840152602081019050612512565b8381111561253c576000848401525b50505050565b6000600282049050600182168061255a57607f821691505b6020821081141561256e5761256d61267d565b5b50919050565b61257d826126db565b810181811067ffffffffffffffff8211171561259c5761259b6126ac565b5b80604052505050565b60006125b0826124f6565b91507fffffffffffffffffffffffffffffffffffffffffffffffffffffffffffffffff8214156125e3576125e261261f565b5b600182019050919050565b60006125f9826124f6565b9150612604836124f6565b9250826126145761261361264e565b5b828206905092915050565b7f4e487b7100000000000000000000000000000000000000000000000000000000600052601160045260246000fd5b7f4e487b7100000000000000000000000000000000000000000000000000000000600052601260045260246000fd5b7f4e487b7100000000000000000000000000000000000000000000000000000000600052602260045260246000fd5b7f4e487b7100000000000000000000000000000000000000000000000000000000600052604160045260246000fd5b6000601f19601f8301169050919050565b7f4552433732313a207472616e7366657220746f206e6f6e20455243373231526560008201527f63656976657220696d706c656d656e7465720000000000000000000000000000602082015250565b7f4f776e61626c653a206e6577206f776e657220697320746865207a65726f206160008201527f6464726573730000000000000000000000000000000000000000000000000000602082015250565b7f4552433732313a207472616e736665722066726f6d20696e636f72726563742060008201527f6f776e6572000000000000000000000000000000000000000000000000000000602082015250565b7f4552433732313a20746f6b656e20616c7265616479206d696e74656400000000600082015250565b7f4552433732313a207472616e7366657220746f20746865207a65726f2061646460008201527f7265737300000000000000000000000000000000000000000000000000000000602082015250565b7f4552433732313a20617070726f766520746f2063616c6c657200000000000000600082015250565b7f4552433732313a206f70657261746f7220717565727920666f72206e6f6e657860008201527f697374656e7420746f6b656e0000000000000000000000000000000000000000602082015250565b7f4552433732313a20617070726f76652063616c6c6572206973206e6f74206f7760008201527f6e6572206e6f7220617070726f76656420666f7220616c6c0000000000000000602082015250565b7f4552433732313a2062616c616e636520717565727920666f7220746865207a6560008201527f726f206164647265737300000000000000000000000000000000000000000000602082015250565b7f4552433732313a206f776e657220717565727920666f72206e6f6e657869737460008201527f656e7420746f6b656e0000000000000000000000000000000000000000000000602082015250565b7f4552433732313a206d696e7420746f20746865207a65726f2061646472657373600082015250565b7f4552433732313a20617070726f76656420717565727920666f72206e6f6e657860008201527f697374656e7420746f6b656e0000000000000000000000000000000000000000602082015250565b7f4f776e61626c653a2063616c6c6572206973206e6f7420746865206f776e6572600082015250565b7f4552433732314d657461646174613a2055524920717565727920666f72206e6f60008201527f6e6578697374656e7420746f6b656e0000000000000000000000000000000000602082015250565b7f4552433732313a20617070726f76616c20746f2063757272656e74206f776e6560008201527f7200000000000000000000000000000000000000000000000000000000000000602082015250565b7f4552433732313a207472616e736665722063616c6c6572206973206e6f74206f60008201527f776e6572206e6f7220617070726f766564000000000000000000000000000000602082015250565b612b4d8161248c565b8114612b5857600080fd5b50565b612b648161249e565b8114612b6f57600080fd5b50565b612b7b816124aa565b8114612b8657600080fd5b50565b612b92816124f6565b8114612b9d57600080fd5b5056fea2646970667358221220f90a01c25213c2aeb866d604b141d699262f998c2c6061d0195d61b2acfacc4064736f6c63430008040033",
  "linkReferences": {},
  "deployedLinkReferences": {}
}